:020000040800F2
:100000003007002059010008890300088B0300080D
:1000100000000000000000000000000000000000E0
:100020000000000000000000000000008F03000836
:1000300000000000000000009103000869010008B2
:100040006B010008000000006B0100086B01000854
:100050006B0100086B010008930300086B010008A6
:10006000000000006B0100086B0100086B01000834
:100070006B0100086B0100086B0100080000000024
:100080006B01000800000000000000006B01000888
:100090006B0100086B0100086B0100086B01000890
:1000A0006B0100086B0100086B0100086B01000880
:1000B0006B01000800F002F800F03EF80CA030C818
:1000C000083824182D18A246671EAB4654465D46D4
:1000D000AC4201D100F030F87E460F3E0FCCB64660
:1000E0000126334200D0FB1AA246AB4633431847E1
:1000F0002832000048320000103A02D378C878C194
:10010000FAD8520701D330C830C101D504680C6059
:10011000704700000023002400250026103A01D378
:1001200078C1FBD8520700D330C100D50B607047AF
:100130001FB51FBD10B510BD03F0AFF81146FFF796
:10014000F7FF00F092F903F0C7F803B4FFF7F2FFEE
:1001500003BC03F0CBF8000007488047074800477E
:10016000FEE7FEE7FEE7FEE7FEE7FEE70448054997
:10017000054A064B704700005F020008B500000802
:100180003001002030070020300300203003002021
:100190000CB500200190009073480068012109040B
:1001A00008437149086000BF6F4800680121490495
:1001B000084000900198401C01900098002804D14C
:1001C0000521090301988842EED1674800680121A2
:1001D00049040840002802D00120009001E00020DE
:1001E00000900098012839D11120604908605E48CC
:1001F00040685D4948600846406848600846406875
:100200007F21C90388435849486008464068112146
:10021000090408435449486008460068012109065A
:1002200008435149086000BF4F4800680121490652
:1002300008400028F8D04C484068800880004A49AF
:10024000486008464068022108434749486000BFAB
:10025000454840680C2108400828F9D10CBD10B56C
:1002600041480068012108433F490860084640684A
:100270003F4908403C494860084600683D490840FD
:1002800039490860084600680121890488433649D5
:100290000860084640683F210904884332494860A5
:1002A0000846C06A00090001C8620846006BFF21C9
:1002B000543188432C4908630846406B400840008D
:1002C000486300208860FFF763FF10BDF8B5002584
:1002D000002400260027244840680C2108400546D9
:1002E000002D04D0042D06D0082D2AD107E0224885
:1002F0002249086029E020482049086025E01A4882
:1003000040680F21890408400446174840680321CB
:10031000C90308400646A00C841C002E04D11848CE
:100320006043164908600BE00F48C06A0007000FE1
:10033000471C3946104802F000FF60430F4908602F
:1003400003E00D480D49086000BF00BF0648406843
:10035000F021084000090B490D5C08480068E8409E
:1003600006490860F8BD000000100240002002406D
:100370000CB8FF08FFFFF6FE00127A000000002014
:1003800000093D0004000020704700BFFEE77047F1
:10039000704710B5082000F029FC002805D008207F
:1003A00000F02FFC01200149086010BD140000205E
:1003B00000B585B00121480400F02FFB0820039010
:1003C000002168460174C17403A90920C00600F029
:1003D00063FC0121084600F02EFB0321002000F001
:1003E00099FF082001900021684601720C2141729A
:1003F0000121817201A800F09BFB06216846017073
:10040000052141700121817001F066FA05B000BD3F
:1004100010B502F075F9002826D002F0ADFB0300FC
:1004200002F06BFF071D0D11050915191D0024A011
:1004300001F0FFFA17E023A001F0FBFA13E023A07C
:1004400001F0F7FA0FE023A001F0F3FA0BE023A08C
:1004500001F0EFFA07E023A001F0EBFA03E022A09D
:1004600001F0E7FA00BF00BF10BDFFF7A1FF01F0E8
:1004700053FB01F08BFA1EA001F0DBFA01F0FEFE47
:10048000012002F0DDF8204801F086FD00201F4920
:10049000086014E01D480068012810D1FFF7B8FF7C
:1004A00008210920C00600F05AFC002804D101F000
:1004B000E5FE012002F0C4F8002014490860E9E7D5
:1004C00055500000444F574E000000004C45465424
:1004D0000000000052494748540000004E45415278
:1004E00000000000464152004E4F4E450000000003
:1004F00041445350393936302047657374757265FD
:1005000020544553542E00001027000014000020F2
:10051000FE48006801210843FC490860084640681D
:10052000FB490840F949486008460068F949084015
:10053000F649086008460068012189048843F349A8
:100540000860084640683F2109048843EF49486035
:100550000846C06A00090001C8620846006BFF2116
:1005600054318843E94908630846406B400840001D
:1005700048630020886070470021E44A917011466A
:100580008870704710B502460021002300205111E9
:10059000002902D1DD4C23680BE0012902D1DB4C9C
:1005A000236A06E0022902D1D84C636A01E0D74CE5
:1005B000636BD106C90E01248C401C40002C01D075
:1005C000012000E0002010BD38B50020009000247C
:1005D000002500BF1120FFF7D5FF05460098401CFD
:1005E0000090052109030098884201D0002DF1D028
:1005F0001120FFF7C7FF002801D0012400E00024EC
:10060000204638BD01460020C04A1068F823024643
:100610009A431046CA001043BC4A10607047002835
:1006200006D0BA49096801221143B84A116005E0B1
:10063000B649096849084900B44A11607047014643
:100640000020B24A506BF82302469A431046CA0073
:100650001043AE4A50637047002806D0AB49496B3F
:1006600001221143A94A516305E0A849496B490891
:100670004900A64A51637047002806D0A349496B38
:1006800004229143A14A516305E0A049496B042229
:1006900011439E4A516370479C49096A49084900C1
:1006A0009A4A11621146096A04229143974A1162DB
:1006B0001146096A0143116270479449096A182278
:1006C0009143924A11621146096A014311627047CF
:1006D000002806D08D49496A012211438B4A516294
:1006E00005E08A49496A49084900884A51627047C9
:1006F000864A52687B23DB039A43844B5A601A462E
:10070000526803460B431A43804B5A6070470028D7
:1007100007D07E4909680122120611437B4A116005
:1007200006E07A490968012212069143774A11606E
:10073000704701460020754AD06A00090001024650
:100740000A431046714AD0627047002807D06F49AB
:1007500009680122D20411436C4A116006E06B491A
:1007600009680122D2049143684A11607047024629
:100770000020664B58680002000A13060B4318431A
:10078000624B5860704701460020604A50688008FC
:10079000800002460A4310465C4A506070475B483E
:1007A00040680C210840704701460020574A5068B5
:1007B000F02302469A43104602460A431046534A23
:1007C0005060704701460020504A506807231B02C2
:1007D00002469A43104602460A4310464B4A50606E
:1007E00070474A494968012292039143474A516040
:1007F0001146496882B21143444A51601146096B5F
:1008000092159143414A11631146096B020C114341
:100810003E4A116370473D49096B402291433B4A70
:1008200011631146096B0143116370473749096B26
:1008300010229143354A11631146096B014311633C
:1008400070473249096B89088900304A11631146A3
:10085000096B014311637047FEB50446002500266D
:100860000020019000900027284840680C21084093
:100870000546002D04D0042D05D0082D28D105E013
:100880002548206027E02448206024E01F48406875
:100890000F218904084006461C4840680321C9030B
:1008A00008400190B00C861C0198002803D11B4819
:1008B000704320600BE01548C06A0007000F401C21
:1008C00000901548009902F038FC7043206002E067
:1008D0001148206000BF00BF0C484068F02108406C
:1008E00005462D090E48475D2068F84060600748BE
:1008F000406807210902084005462D0A0848475D5F
:100900006068F840A0600148006B0BE000100240F6
:100910000CB8FF08FFFFF6FE00127A0000093D0048
:1009200018000020FF2101310840884202D077489A
:10093000E0600DE076484068012189030840884264
:1009400003D0A0684008E06002E0A0688008E06092
:100950006F48006B40210840402802D06D4820615C
:1009600002E00120C00320616948006B10210840AB
:10097000102802D06848606101E020686061644826
:10098000006B8007800F002802D1A068A06119E0E9
:100990005F48006B8007800F012802D12068A061AA
:1009A00010E05B48006B8007800F022802D18003B3
:1009B000A06107E05648006B8007800F032801D133
:1009C0005548A061FEBD5249096A0143504A11626F
:1009D0007047002807D04E49096A0122D20311430B
:1009E0004B4A116206E04A49096A0122D203914347
:1009F000474A11627047002807D04549096A012219
:100A000012041143424A116206E04149096A012277
:100A1000120491433E4A11627047002905D03C4AB6
:100A2000526902433A4B5A6104E0394A526982439F
:100A3000374B5A617047002905D0354A9269024305
:100A4000334B9A6104E0324A92698243304B9A6197
:100A50007047002905D02E4AD26902432C4BDA6137
:100A600004E02B4AD2698243294BDA61704700299E
:100A700005D0274A926A0243254B9A6204E0244A31
:100A8000926A8243224B9A627047002905D0204A1D
:100A9000D26802431E4BDA6004E01D4AD2688243EA
:100AA0001B4BDA607047002905D0194A12690243CE
:100AB000174B1A6104E0164A12698243144B1A61FB
:100AC0007047002905D0124A527A0243104B5A72DD
:100AD00004E00F4A527A82430D4B5A7270470C4819
:100AE000406A0121090608430949486270470146E6
:100AF0000020074A92680A40002A01D0012000E045
:100B0000002070470249887270470000809FD5001E
:100B1000001002401280000000127A003A483B495F
:100B20000860002048608860C860394848617047A4
:100B3000002136498279002A35D00A4612680368B6
:100B40009A430B461A600A46526803689A430B465A
:100B50005A60027951180A6803681A430A602B4ADE
:100B6000926803689A43294B9A601A46D2680368D0
:100B70009A43264BDA604279102A0CD11A469268C1
:100B800003681A43214B9A601A46D26803681A43D5
:100B90001E4BDA600DE01D49427951180A6803685E
:100BA0001A430A6005E0027951180A6803689A43FB
:100BB0000A6070470021016001710C214171002120
:100BC00081717047114909690143104A11617047E9
:100BD000014600200D4A52690A40002A01D0012036
:100BE00000E0002070470949486170470146002035
:100BF000064A52690A40002A01D0012000E0002084
:100C000070470249486170470000940F000401409A
:100C1000FFFF6B0010B504460920C006844209D1CD
:100C200001214804FFF723FF002101204004FFF7C2
:100C30001EFF30E06E48844208D101210002FFF718
:100C400016FF00212002FFF712FF24E069488442CA
:100C500008D101210002FFF70AFF00212002FFF75F
:100C600006FF18E06448844209D101210805FFF716
:100C7000FEFE002101200005FFF7F9FE0BE05F48B2
:100C8000844208D101218805FFF7F1FE00210120EF
:100C90008005FFF7ECFE10BDF0B50A4600210023E9
:100CA000002400BF3DE001258D402B4615681D4006
:100CB0002C469C4234D11579012D02D01579022D94
:100CC00016D185684F000326BE40B543856055792F
:100CD0004E00B540866835438560858801268E4084
:100CE000B5438580858896798E40B6B23543858038
:100CF00005684F000326BE40B543056015794E00D8
:100D0000B540066835430560C5684F000326BE4000
:100D1000B543C560D5794E00B540C6683543C5605A
:100D2000491C1029BFD3F0BD354901600021017174
:100D30000121417100218171C171704708B5012203
:100D400012040092009A0A430092009AC261C161A3
:100D5000009AC261C2690092C269009208BD02464F
:100D60000020138A0B40002B01D0012000E000205E
:100D700070470146088A704702460020938A0B405C
:100D8000002B01D0012000E0002070470146888A36
:100D900070478161704701857047002A01D08161E9
:100DA00000E00185704781827047F0B50023002480
:100DB0004D07EE0E1546B5402B46CD10AE0005464C
:100DC0002035AD594E07F70E0F26BE40B543CE1065
:100DD000B60007462037BD51CD10AE003D46AD5997
:100DE0001D432C46CD10AD003E467451F0BD0000B1
:100DF0000004004800080048000C004800140048A7
:100E0000FFFF000010B50446F948844209D10121D2
:100E10004805FFF748FE002101204005FFF743FE8B
:100E200008E001218805FFF73EFE00210120800532
:100E3000FFF739FE10BD10B50A46002103685B08B4
:100E40005B0003600168EB4B19409468240253680F
:100E50002343194301600F2424061368A34303614D
:100E6000036801242343036000218160C160146989
:100E7000936923431946816083680124E403234373
:100E80008360D16803680B4303604168DA4B194003
:100E900053691943416010BD0021016041608160C8
:100EA000C16001610121C903416100218161704775
:100EB000002904D0026801231A43026003E002689B
:100EC00052085200026070470168490849000160F9
:100ED000016801680122114301607047002A03D0B4
:100EE00003680B43036002E003688B4303607047B1
:100EF000002905D0026801235B049A43026004E0E4
:100F0000026801235B041A4302607047002905D080
:100F1000026801239B041A43026004E00268012373
:100F20009B049A4302607047002905D0C2680123E0
:100F3000DB031A43C26004E0C2680123DB039A4367
:100F4000C260704770B50B460021C168AB4C2140B0
:100F5000FE241C4015020726360235402C4321434F
:100F6000C16070BD002905D002680123DB041A436B
:100F7000026004E002680123DB049A4302607047C8
:100F8000002905D0026801231B041A43026004E013
:100F9000026801231B049A43026070470A4600213D
:100FA0004168890A890293059B0D19434160704786
:100FB000002905D042680123DB021A43426004E0A5
:100FC00042680123DB029A4342607047002905D042
:100FD000426801235B061A43426004E04268012331
:100FE0005B069A4342607047002905D0426801239E
:100FF0001B061A43426004E0426801231B069A4321
:101000004260704710B50A4600214168FF2424045D
:101010000B46A3431946130423401943416010BDF6
:10102000002905D1426801239B029A43426004E0F3
:10103000426801239B021A4342607047002905D091
:10104000426801235B031A43426004E042680123C3
:101050005B039A4342607047002905D04268012330
:101060009B031A43426004E0426801239B039A43B6
:1010700042607047002905D0426801231B031A43D0
:10108000426004E0426801231B039A4342607047B8
:10109000002905D042680123DB039A43426004E043
:1010A00042680123DB031A434260704701468869A6
:1010B0007F2252041040000C704710B501460022F8
:1010C00000208B690124240423401A46002A00D101
:1010D00001E00120800210BDF0B50C4600214168FE
:1010E000474D2940A505AD0D1604FF273F043E409E
:1010F00035431D43059E354329434160F0BD00291A
:1011000005D0026801239B051A43026004E00268CF
:1011100001239B059A4302607047002905D042696C
:101120000123DB031A43426104E042690123DB032C
:101130009A4342617047002905D042690123DB07C9
:101140001A43426103E0426952005208426170470B
:10115000002905D0426901231B031A43426104E0C0
:10116000426901231B039A43426170470A460021EA
:101170004169090B090313051B0D194341617047B0
:1011800010B50A46002141691E4B194013041D4C3D
:10119000E44323401943416110BD002905D0026892
:1011A0000123DB051A43026004E002680123DB052A
:1011B0009A4302607047002905D0026801239B060C
:1011C0001A43026004E0026801239B069A4302600E
:1011D00070470146086AC0B2704708B50246002051
:1011E000009000920098401800900098006808BD98
:1011F00000580040FFE0CF00FF7FFF0701F8FFFF2E
:10120000009800FCFFFF00F0816270470146486AC9
:10121000C0B27047002A03D003680B43036002E0AA
:1012200003688B430360704710B50246002300201B
:1012300093691C460C402346002B01D0012000E09E
:10124000002010BDC161704770B502460023002028
:1012500000243F252D020D40002D04D01568802666
:1012600035402C460BE0C0250D40002D04D01568FC
:10127000402635402C4602E015680D402C46936907
:101280001D460D402B46002B03D0002C01D0012021
:1012900000E0002070BDC161704700003A4800685E
:1012A0008007800F38490860002088600021364898
:1012B000C160016141618069FF2101310843324908
:1012C00088617047014600202F4A1068800880001E
:1012D00002460A4310462C4A10607047002905D088
:1012E000294A12680243284B1A6004E0264A126811
:1012F0008243254B1A607047002905D0224A1268A4
:101300000243214B1A6004E01F4A126882431E4BBD
:101310001A60704730B500228B071C0F0F23A340C3
:101320001A46194B08338C10A4001B599343164CD2
:1013300008348D10AD00635123468C10A4001B5956
:101340008C07250F0446AC4023430F4C08348D1006
:10135000AD00635130BD0C49896901430A4A91616E
:10136000704701460020084A9269FF2301331A4062
:10137000002A01D0012000E000207047024989695D
:101380000143014A916170470000014010B50446D5
:10139000F648844209D101218803FFF776FB00213A
:1013A00001208003FFF771FB0BE0F148844208D174
:1013B00001214804FFF777FB002101204004FFF7DB
:1013C00072FB10BDF0B589B004460D460027002021
:1013D00008900026206840084000206066680321CD
:1013E0000903304688430646A868064366602668B7
:1013F000E0480640E96868680843296908430643ED
:101400002660A668032109023046884306466869BB
:101410000643A66001A8FFF71FFAD448844202D110
:101420000798089001E00398089020680121C903FB
:10143000084000280CD02968089A500001F07DFE71
:1014400007462968089A500001F077FE0E4609E029
:101450002968089801F071FE07462968089801F08C
:101460006CFE0E4628684008B04200D87F1C2068F9
:101470000121C9030840002806D03807460F384626
:10148000BD49084030430746A78109B0F0BD4B2154
:10149000C9010160002141608160C1600C210161CE
:1014A00000214161704710B5002242680F242402D8
:1014B0001346A3431A464C680B6823438C682343A6
:1014C000CC6823431A43426010BD00210160416093
:1014D0008160C1607047002904D0026801231A436B
:1014E000026003E002685208520002607047002A5E
:1014F00003D003680B43036002E003688B4303607F
:101500007047002905D002680123DB031A430260FB
:1015100004E002680123DB039A430260704700295C
:1015200005D082680123DB021A43826004E08268EE
:101530000123DB029A4382607047002905D042688C
:101540000123DB041A43426004E042680123DB0408
:101550009A4342607047002905D0426801239B04EA
:101560001A43426004E0426801239B049A434260AC
:101570007047002A03D043680B43436002E043688E
:101580008B4343607047002905D042680123DB0389
:101590001A43426004E042680123DB039A4342603D
:1015A0007047002905D042680123DB051A434260D9
:1015B00004E042680123DB059A43426070474269B8
:1015C000120E1206426142690A4342617047028A62
:1015D000FF231B021A400282028A0A4302827047DA
:1015E000002904D0026802231A43026003E0026863
:1015F00002239A4302607047826803231B059A43C3
:10160000826082680A4382607047002905D0426880
:1016100001231B051A43426004E0426801231B05B5
:101620009A4342607047426803235B059A434260D5
:1016300042680A4342607047CA05D20D028570476E
:101640000146888CC005C00D704742681202120A1C
:10165000426042680B061A4342607047002905D079
:10166000026801235B031A43026004E0026801235D
:101670005B039A430260704702680123DB029A43CE
:10168000026002680A4302607047426810239A436E
:10169000426042680A4342607047426820239A438E
:1016A000426042680A4342607047002905D04268A0
:1016B00001239B031A43426004E0426801239B0319
:1016C0009A4342607047002904D0826808231A4375
:1016D000826003E0826808239A4382607047028A2E
:1016E000D2B20282028A0B021A4302827047002998
:1016F00004D0826820231A43826003E0826820239A
:101700009A4382607047002904D0826810231A43EC
:10171000826003E0826810239A4382607047826887
:1017200007235B049A43826082684B041A438260F9
:10173000704742691202120A426142690B061A435B
:1017400042617047826804239A43826082680A4338
:1017500082607047002904D0826802231A438260A5
:1017600003E0826802239A43826070470038014098
:1017700000440040F3E9FFFFF0FF0000002905D01E
:10178000826801239B031A43826004E0826801237C
:101790009B039A438260704782680123DB039A436C
:1017A000826082680A438260704702681F235B057B
:1017B0009A43026002684B051A4302607047026850
:1017C0001F231B049A43026002680B041A43026041
:1017D0007047002A03D083680B43836002E083686C
:1017E0008B4383607047826801235B039A43826066
:1017F00082680A4382607047F8B5034600240026D9
:1018000000960025002018460E04340ECEB2009635
:101810000127009EB7403D46022C01D1001D02E089
:10182000032C00D10830002A03D006682E4306603E
:1018300002E00668AE430660F8BD002A03D0038BC1
:101840000B43038302E0038B8B430383704782685F
:1018500001231B039A43826082680A4382607047B7
:1018600002460020D3690B40002B01D0012000E08C
:10187000002070470162704770B502460B46002495
:101880000021002500201E04350ED9B201268E400D
:101890003146012D02D11668314006E0022D02D1F9
:1018A0005668314001E0966831401C0C0126A64084
:1018B0003446D6693440002903D0002C01D00120E1
:1018C00000E0002070BD10B5002300220B0C0124A5
:1018D0009C402246026210BD00218278002A27D057
:1018E000274A03231B02D21803789B109B00D15870
:1018F00002789207D30EFF229A400B469343194673
:1019000042789207120E03789B07DB0E9A40114330
:101910001B4A03231B02D21803789B109B00D15053
:101920000278D306DB0E01229A40154B1A6007E0BD
:101930000278D306DB0E01229A40114B80331A60E5
:101940007047002905D00F4A126902430D4B1A61F6
:1019500004E00C4A126982430A4B1A61704704285A
:1019600006D10949096904221143074A116105E0BA
:101970000549096904229143034A11617047000037
:1019800000E100E000ED00E000E000E000B589B01B
:101990001B21684601700221417001218170FFF70F
:1019A0009BFF01214804FFF738F801218803FFF766
:1019B00042F801220921C806FFF7F7F901220A219E
:1019C0000920C006FFF7F1F9032040020790022129
:1019D00008A80170002181700121C17003214170AC
:1019E00007A90920C006FFF757F94B20C001019055
:1019F000002002900390049006900C20059001A90D
:101A00001A48FFF7DFFC01211848FFF764FD0122A7
:101A100017491648FFF7F0FE09B000BD00BF134993
:101A2000C969802211400029F9D01049203108816C
:101A3000704700B5034603E018785B1CFFF7EEFF24
:101A400018780028F8D100BD00B5034603E01878E7
:101A50005B1CFFF7E3FF18780028F8D10D20FFF793
:101A6000DDFF0A20FFF7DAFF00BD0000003801406B
:101A7000050105001CB50021F848FFF719FAF748E1
:101A8000FFF7C0F9002101208005FEF7E2FF0120E9
:101A900080020090002168460171C1716946F048DA
:101AA000FFF7FAF80120C00200906946EC48FFF702
:101AB000F3F81CBD1CB50020FEF7B8FE0121880418
:101AC000FEF7ABFF01218805FEF7C3FF01220A21C3
:101AD000E348FFF76AF901220B21E148FFF765F9B6
:101AE00001208002009002216846017100214171AD
:101AF000012181710021C1716946D948FFF7CCF8F5
:101B00000120C00200906946D548FFF7C5F81CBD0A
:101B100010B5FFF7AFFF10BD00B587B0FFF7CAFFE4
:101B20000020039001900290049005900690CD480B
:101B300000906946C948FFF77EF90121C748FFF7C1
:101B4000B7F907B000BD10B5C7A0FFF772FF0020BE
:101B500010BD01460120704738B504460D460120EE
:101B600040030023022272210090BC48FFF7B4FA20
:101B700005204003BE4908600AE0BD490868411ECF
:101B8000BB4A1160002803D1FFF7DDFFC0B238BDAA
:101B90000221B248FFF748FB0028EED02146AF48AB
:101BA000FFF732FB05204003B14908600AE0B04965
:101BB0000868411EAE4A1160002803D1FFF7C3FF39
:101BC000C0B2E4E70221A548FFF72EFB0028EED0C3
:101BD0002946A248FFF718FB05204003A4490860E6
:101BE0000AE0A3490868411EA14A1160002803D1F8
:101BF000FFF7A9FFC0B2CAE740219848FFF714FBDE
:101C00000028EED001208003C30200227221009040
:101C10009248FFF761FA20219048FFF713FB01205B
:101C2000B5E7F8B507460D4616460120400300907B
:101C3000701CC2B2002372218848FFF74DFA0520BC
:101C400040038B4908600AE089490868411E884AB8
:101C50001160002803D1FFF776FFC0B2F8BD022162
:101C60007E48FFF7E1FA0028EED039467B48FFF7BF
:101C7000CBFA052040037E4908600AE07C490868E9
:101C8000411E7B4A1160002803D1FFF75CFFC0B200
:101C9000E4E702217148FFF7C7FA0028EED00024DC
:101CA0001BE0295D6D48FFF7AFFA0520400370493E
:101CB00008600AE06E490868411E6D4A11600028FC
:101CC00003D1FFF740FFC0B2C8E702216348FFF726
:101CD000ABFA0028EED0601CC4B2701EA042E0D85F
:101CE000295D5E48FFF790FA601CC4B205204003EE
:101CF0005F4908600AE05E490868411E5C4A11605D
:101D0000002803D1FFF71FFFC0B2A7E740215348C7
:101D1000FFF78AFA0028EED001208003C3020022D8
:101D2000722100904D48FFF7D7F920214B48FFF76B
:101D300089FA012092E7F8B504460D4600260120F5
:101D4000400300230122722100904448FFF7C4F9A8
:101D500005204003464908600AE045490868411EDD
:101D6000434A1160002803D1FFF7EDFEC0B2F8BD71
:101D700002213A48FFF758FA0028EED021463748AA
:101D8000FFF742FA05204003394908600AE0384964
:101D90000868411E364A1160002803D1FFF7D3FEC0
:101DA000C0B2E4E740212D48FFF73EFA0028EED00C
:101DB0000920800201235B0601227221009027483E
:101DC000FFF78AF905204003294908600AE02849FD
:101DD0000868411E264A1160002803D1FFF7B3FEB0
:101DE000C0B2C4E704211D48FFF71EFA0028EED058
:101DF0001A48FFF70BFA2870701CC6B20520400382
:101E00001B4908600AE01A490868411E184A116017
:101E1000002803D1FFF797FEC0B2A8E720210F48A2
:101E2000FFF702FA0028EED020210C48FFF70AFA4B
:101E300001209CE7F8B507460D4616460024012010
:101E4000400300230122722100900448FFF744F967
:101E5000052040030649086017E0000000580040D4
:101E600000040048070541FF6572720A0000000087
:101E70002800002046490868411E454A1160002894
:101E800003D1FFF760FEC0B2F8BD02214148FFF761
:101E9000CBF90028EED039463E48FFF7B5F90520CA
:101EA00040033B4908600AE039490868411E384A46
:101EB0001160002803D1FFF746FEC0B2E4E74021DD
:101EC0003448FFF7B1F90028EED009208002F2B2C1
:101ED00001235B06722100902E48FFF7FDF80520D4
:101EE00040032B4908600AE029490868411E284A36
:101EF0001160002803D1FFF726FEC0B2C4E7042119
:101F00002448FFF791F90028EED000241BE0214877
:101F1000FFF77CF92855052040031D4908600AE0B9
:101F20001B490868411E1A4A1160002803D1FFF7B7
:101F30000AFEC0B2A8E704211648FFF775F9002889
:101F4000EED0601CC4B2701EA042E0D81148FFF76A
:101F50005DF92855601CC4B2052040030C49086097
:101F60000AE00B490868411E094A1160002803D1A4
:101F7000FFF7E9FDC0B287E720210648FFF754F9D3
:101F80000028EED020210348FFF75CF920467BE7CC
:101F9000280000200058004000E0401E0028FCD12E
:101FA000704700B5024603E0521EF848FFF7F4FF01
:101FB000002AF9D100BD38B504466946AB20FFF7C9
:101FC000BAFE002800D138BDE407E40F640068467B
:101FD0000178FD200140009168460178214300917D
:101FE0000178AB20FFF7B8FD002800D1EBE7012016
:101FF000E9E738B504466946A320FFF79CFE0028B0
:1020000000D138BD6407640F68460178F8200140AC
:10201000009168460178214300910178A320FFF7E1
:102020009BFD002800D1ECE70120EAE738B5044623
:102030006946A320FFF77FFE002800D138BDA40722
:10204000A40FE40068460178E7200140009168464B
:102050000178214300910178A320FFF77DFD00283E
:1020600000D1EBE70120E9E738B504466946A32033
:10207000FFF761FE002800D138BDA407A40F64015A
:10208000684601789F20014000916846017821430D
:1020900000910178A320FFF75FFD002800D1EBE756
:1020A0000120E9E710B504462146A120FFF754FDC1
:1020B000002800D110BD0120FCE710B504462146E0
:1020C000A020FFF749FD002800D110BD0120FCE74A
:1020D00070B50446E5B2FF200002204006122946F2
:1020E0008620FFF739FD002800D170BD31468720DA
:1020F000FFF732FD002800D1F7E70120F5E770B5C2
:102100000446E5B2FF200002204006122946842042
:10211000FFF722FD002800D170BD31468520FFF772
:102120001BFD002800D1F7E70120F5E710B50446B4
:1021300021468B20FFF710FD002800D110BD0120A3
:10214000FCE710B5044621468920FFF705FD00286D
:1021500000D110BD0120FCE738B5044669468F2048
:10216000FFF7E9FD002800D138BDA407A40F684699
:102170000178FC20014000916846017821430091DC
:1021800001788F20FFF7E8FC002800D1ECE7012060
:10219000EAE738B5044669468F20FFF7CCFD0028F2
:1021A00000D138BDA407A40FA40068460178F3202D
:1021B00001400091684601782143009101788F2009
:1021C000FFF7CAFC002800D1EBE70120E9E738B5AA
:1021D000044669468F20FFF7AEFD002800D138BDC8
:1021E000A407A40FA401684600788106890E009117
:1021F000684601782143009101788F20FFF7ACFCFD
:10220000002800D1EBE70120E9E708B56946802006
:10221000FFF791FD002801D1FF2008BD6846007836
:10222000FBE770B504460D46FFF7EFFF0646FF2EAD
:1022300001D1002070BDED07ED0F002C0EDB062C48
:102240000CDC002D04D00120A0403043C6B20CE0CD
:102250000120A040314681430E4606E0072C04D100
:10226000002D01D07F2600E0002631468020FFF7B8
:1022700073FC002800D1DDE70120DBE708B56946E3
:102280009220FFF758FD002800D108BD684600786D
:10229000AB2805D0684600789C2801D00020F4E7E0
:1022A00000210720FFF7BDFF002800D1EDE7DB216B
:1022B0008120FFF751FC002800D1E6E7F6218320BA
:1022C000FFF74AFC002800D1DFE787218E20FFF7C7
:1022D00043FC002800D1D8E700219D20FFF73CFCFB
:1022E000002800D1D1E700219E20FFF735FC00280F
:1022F00000D1CAE760218D20FFF72EFC002800D115
:10230000C3E70020FFF763FF002800D1BDE70220EC
:10231000FFF73FFF002800D1B7E70120FFF71CFFC0
:10232000002800D1B1E70020FFF70BFF002800D103
:10233000ABE73220FFF7FAFE002800D1A5E71448EA
:10234000FFF7DDFE002800D19FE70020FFF7C0FE69
:10235000002800D199E711218C20FFF7FDFB002810
:1023600000D192E701219020FFF7F6FB002800D171
:102370008BE700219F20FFF7EFFB002800D184E7C7
:102380002820FFF79AFE002804D17EE74E250000A2
:10239000FFFF00001E20FFF785FE002800D174E734
:1023A0004021A220FFF7D8FB002800D16DE70220D2
:1023B000FFF75AFE002800D167E70020FFF736FE3E
:1023C000002800D161E70120FFF713FE002800D1AB
:1023D0005BE70021A420FFF7BFFB002800D154E7F2
:1023E0000021A520FFF7B8FB002800D14DE7002110
:1023F000A720FFF7B1FB002800D146E70021A92064
:10240000FFF7AAFB002800D13FE7C921A620FFF76C
:10241000A3FB002800D138E70021AA20FFF79CFB8E
:10242000002800D131E70020FFF7C5FD002800D1CA
:102430002BE7012029E710B501210020FFF7F1FE6D
:10244000002800D110BD0120FCE738B504466946DC
:102450008020FFF770FC002800D138BDE407E40FAE
:10246000240168460178EF20014000916846017818
:102470002143009101788020FFF76EFB002800D1F6
:10248000EBE70120E9E710B504460120FFF764FE01
:10249000002800D110BD002C05D00120FFF7D5FF8A
:1024A000002806D1F6E70020FFF7CFFF002800D173
:1024B000F0E7FFF7C0FF002800D1EBE70121084655
:1024C000FFF7AFFE002800D1E4E70120E2E710B5F6
:1024D0000020FFF7BAFF002800D110BD0021012025
:1024E000FFF79FFE002800D1F7E70120F5E738B598
:1024F000044669468020FFF71EFC002800D138BD45
:10250000E407E40F640168460178DF200140009190
:10251000684601782143009101788020FFF71CFB79
:10252000002800D1EBE70120E9E710B504460220BE
:10253000FFF72FFE002800D110BD0020FFF747FE57
:10254000002800D1F8E7002C05D00120FFF7CFFFCD
:10255000002806D1F0E70020FFF7C9FF002800D1CE
:10256000EAE7FFF768FF002800D1E5E70121022034
:10257000FFF757FE002800D1DEE70120DCE710B5A9
:102580000020FFF7B4FF002800D110BD0021022079
:10259000FFF747FE002800D1F7E70120F5E738B53F
:1025A00004466946AB20FFF7C6FB002800D138BDC2
:1025B000E407E40F68460178FE2001400091684678
:1025C0000178214300910178AB20FFF7C5FA00287C
:1025D00000D1ECE70120EAE738B5044669469020CF
:1025E000FFF7A9FB002800D138BDA407A40F2401E0
:1025F00068460178CF200140009168460178214368
:10260000009101789020FFF7A7FA002800D1EBE7AE
:102610000120E9E70021FE48017041700020FD49DA
:102620000860FD490860FD490860FD490860FD49F2
:102630000860FD490860FD490860FD490860704771
:1026400010B50446FFF7E6FFFF218320FFF784FA69
:10265000002800D110BD89218E20FFF77DFA0028C7
:1026600000D1F7E70320FFF7B7FF002800D1F1E71B
:10267000002C05D00120FFF79EFC002806D1E9E7D9
:102680000020FFF798FC002800D1E3E70120FFF7C6
:1026900086FF002800D1DDE7FFF7CDFE002800D13E
:1026A000D8E701210320FFF7BCFD002800D1D1E7C6
:1026B00001210220FFF7B5FD002800D1CAE7012162
:1026C0000620FFF7AEFD002800D1C3E70120C1E7D7
:1026D00010B5FFF79FFF0020FFF76DFC002800D129
:1026E00010BD0020FFF75BFF002800D1F8E70021B4
:1026F0000620FFF796FD002800D1F1E70120EFE763
:1027000008B56946AF20FFF716FB002801D1FF206E
:1027100008BD68460078C107C90F00916846007877
:10272000012800D1F4E70020F2E7C0480068012842
:1027300004D10520BE49086001207047BB480068ED
:10274000022804D10620BA4908600120F5E7B34801
:102750000068401C002807D1B1480068002803D158
:102760000220B3490860AAE0AC480068012807D1FC
:10277000AB480068002803D10120AD4908609EE005
:10278000A6480068002807D1A5480068012803D1A1
:102790000420A749086092E0A0480068002808D1FA
:1027A0009F480068401C002803D10320A04908600E
:1027B00085E09A480068401C00281BD198480068B2
:1027C000012817D1944A1068924A1168002901DB48
:1027D0000A4600E04A42002801DB034600E043428B
:1027E0009A4203DD02209249086068E00420904983
:1027F000086064E08948006801281CD188480068A6
:10280000401C002817D1844A1068824A11680029A8
:1028100001DB0A4600E04A42002801DB034600E0F3
:1028200043429A4203DD01208149086047E00320CA
:102830007F49086043E079480068401C00281CD1AB
:1028400077480068401C002817D1734A1068714A05
:102850001168002901DB0A4600E04A42002801DB3A
:10286000034600E043429A4203DD022070490860BB
:1028700025E003206E49086021E0684800680128CF
:102880001BD167480068012817D1634A1068614A64
:102890001168002901DB0A4600E04A42002801DBFA
:1028A000034600E043429A4203DD0120604908608C
:1028B00005E004205E49086001E000203DE70120BA
:1028C0003BE7F0B58BB0002700200A9009900890F4
:1028D00007900690059004904D484078042802DC4B
:1028E00000200BB0F0BD4A484078202868DC4848FA
:1028F0004078002864DD002423E045488038005DEE
:102900000A281DDD42486038005D0A2818DD40486D
:102910004038005D0A2813DD3D482038005D0A2854
:102920000EDD3B488038075D2030005D0A90384856
:102930004038005D099036482038005D089004E07A
:10294000641C33484078A042D7DC00BF002F08D079
:102950000A98002805D00998002802D00898002875
:1029600001D10020BDE72A484078441E25E02848D0
:102970008038005D0A281FDD25486038005D0A2880
:102980001ADD23484038005D0A2815DD204820382C
:10299000005D0A2810DD1E488038005D07901C4845
:1029A0006038005D06901A484038005D0590184870
:1029B0002038005D049002E0641E002CD7DA00BFCE
:1029C0000A9AB918BA1A64235A43104600F0BFFB9A
:1029D0000390089B099AD118D21A64235A431046CF
:1029E00000F0B5FB0290069B079AD118D21A642317
:1029F0005A43104600F0ABFB0190049B059AD11896
:102A0000D21A64235A43104600F0A1FB009011E053
:102A1000CC0000202C0000203000002034000020DA
:102A2000380000203C00002040000020440000202E
:102A30004800002003990198451A02990098461A07
:102A4000F84800684019F7490860F748006880199D
:102A5000F5490860F3480068322803DB0120F34998
:102A600008600CE0EF4800683121C943884203DC6C
:102A70008811EE49086002E00020EC490860EA484D
:102A80000068322803DB0120E94908600CE0E648D1
:102A900000683121C943884203DC8811E449086099
:102AA00002E00020E2490860E048006800283DD1CB
:102AB000DF480068002839D1291E01DB0A4600E002
:102AC0004A42142A56DA301E01DB024600E0424236
:102AD000142A4FDA002D07D1002E05D1D548006801
:102AE000401CD449086008E0002D01D1002E04D01C
:102AF000D1480068401CD0490860CE4800680A28C8
:102B000038DBCD480068022834DB002D05D1002ECB
:102B100003D10120C949086006E0002D04D0002E31
:102B200002D00220C54908600120DAE6291E01DB37
:102B30000A4600E04A42142A1CDA301E01DB024633
:102B400000E04242142A15DA002D06D1002E04D1ED
:102B5000B8480068401CB7490860B64800680A28B1
:102B600008DB0020B1490860B1490860AD49086040
:102B7000AD4908600020B4E670B5A2B000202190F5
:102B80000025FFF7BDFD002805D0FFF73EFB4121E2
:102B90000840002802D1002022B070BD6DE01E2048
:102BA000FFF7FFF96946AF20FFF7C5F8002801D10C
:102BB000FF20F1E768460078C007C00F002851D019
:102BC00021A9AE20FFF7B7F8002801D1FF20E3E7E5
:102BD00020A80079002850DD20A80079820001A9F2
:102BE000FC20FFF727F90546681C002801D1FF20CB
:102BF000D2E7042D41DB002427E001A8015D9048C5
:102C000000788F4A803A115401A9601C095C8C48F5
:102C100002786038815401A9A01C095C88480278B8
:102C20004038815401A9E01C095C854802782038AD
:102C3000815420300078401CC1B281480170407836
:102C4000401CC1B27E484170241DAC42D5DBFFF769
:102C500038FE002801D0FFF768FD00217848017098
:102C600041700AE01E20FFF79CF9FFF75EFD7548F2
:102C70000668FFF7CFFC30468EE790E710B50021DD
:102C80000846FFF7CEFA002800D110BD0120FCE76E
:102C900038B504460020208069469420FFF74BF8A1
:102CA000002800D138BD684600782080694695200C
:102CB000FFF741F8002800D1F4E720886946097839
:102CC0000902401820800120ECE738B504460020B6
:102CD000208069469620FFF72EF8002800D138BDE5
:102CE00068460078208069469720FFF724F800287E
:102CF00000D1F4E72088694609780902401820804D
:102D00000120ECE738B50446002020806946982071
:102D1000FFF711F8002800D138BD68460078208000
:102D200069469920FFF707F8002800D1F4E72088CA
:102D3000694609780902401820800120ECE738B57F
:102D400004460020208069469A20FEF7F4FF002800
:102D500000D138BD68460078208069469B20FEF788
:102D6000EAFF002800D1F4E72088694609780902C3
:102D7000401820800120ECE710B5044600202070A8
:102D800021469C20FEF7D7FF002800D110BD01206E
:102D9000FCE708B569468920FEF7CDFF002800D181
:102DA00000906846007808BD08B569468B20FEF79C
:102DB000C2FF002800D100906846007808BD08B521
:102DC00069468F20FEF7B7FF002801D1FF2008BD1C
:102DD000684600788111009168460078F7E708B5E9
:102DE00069468F20FEF7A7FF002801D1FF2008BD0C
:102DF000684600780007810F009168460078F6E782
:102E000008B569468F20FEF796FF002801D1FF2004
:102E100008BD684600788107890F009168460078F0
:102E2000F6E700002C0000203000002034000020D5
:102E3000380000203C00002040000020440000201A
:102E4000CC0000204800002008B569469020FEF71D
:102E500072FF002801D1FF2008BD68460078800677
:102E6000810F009168460078F6E708B569469F2013
:102E7000FEF761FF002801D1FF2008BD68460078F9
:102E80008006C10F009168460078F6E738B5044621
:102E900069469F20FEF74FFF002800D138BDE407A8
:102EA000E40F640168460178DF2001400091684624
:102EB00001782143009101789F20FEF74DFE002804
:102EC00000D1EBE70120E9E708B569469F20FEF74E
:102ED00032FF002801D1FF2008BD684600780107B5
:102EE000090F009168460078F6E738B50446694650
:102EF0009F20FEF720FF002800D138BD2407240FB3
:102F000068460178F020014000916846017821432D
:102F1000009101789F20FEF71FFE002800D1ECE70A
:102F20000120EAE708B56946A020FEF704FF002863
:102F300000D100906846007808BD08B56946A12018
:102F4000FEF7F9FE002800D100906846007808BD21
:102F500008B56946A320FEF7EEFE002801D1FF2048
:102F600008BD684600784006810F009168460078E9
:102F7000F6E708B56946A320FEF7DDFE002801D17B
:102F8000FF2008BD68460078C006810F00916846A2
:102F90000078F6E708B56946A320FEF7CCFE0028C6
:102FA00001D1FF2008BD684600784107490F009114
:102FB00068460078F6E738B5044600202080694668
:102FC0008420FEF7B8FE002800D138BD684600789E
:102FD000208069468520FEF7AEFE002800D1F4E788
:102FE0002088694609780902401820800120ECE712
:102FF00038B504460020208069468620FEF79BFEF7
:10300000002800D138BD68460078208069468720B6
:10301000FEF791FE002800D1F4E720886946097880
:103020000902401820800120ECE710B5044600207A
:10303000207021468920FEF77EFE002800D110BDB9
:103040000120FCE710B5044621468920FEF784FDE7
:10305000002800D110BD0120FCE710B50446002077
:10306000207021468B20FEF766FE002800D110BD9F
:103070000120FCE710B5044621468B20FEF76CFDCD
:10308000002800D110BD0120FCE708B5694680206A
:10309000FEF751FE002801D1FF2008BD68460078E8
:1030A000C006C10F009168460078F6E708B569468A
:1030B0008020FEF740FE002801D1FF2008BD6846B1
:1030C00000788006C10F009168460078F6E708B5E1
:1030D0006946AB20FEF72FFE002801D1FF2008BD76
:1030E000684600788007C10F009168460078F6E7CF
:1030F00008B56946E720FEF71EFE002800D108BD8E
:103100000120FCE708B56946E520FEF714FE00281B
:1031100000D108BD0120FCE708B56946AB20FEF7E9
:103120000AFE002801D1FF2008BD68460078C107CB
:10313000C90F009168460078F6E7002203098B4228
:103140002CD3030A8B4211D300239C464EE0034646
:103150000B433CD4002243088B4231D303098B42FA
:103160001CD3030A8B4201D394463FE0C3098B4230
:1031700001D3CB01C01A524183098B4201D38B0189
:10318000C01A524143098B4201D34B01C01A52412C
:1031900003098B4201D30B01C01A5241C3088B4271
:1031A00001D3CB00C01A524183088B4201D38B005C
:1031B000C01A524143088B4201D34B00C01A5241FE
:1031C000411A00D201465241104670475DE0CA0FD5
:1031D00000D04942031000D34042534000229C4695
:1031E00003098B422DD3030A8B4212D3FC2289019F
:1031F00012BA030A8B420CD3890192118B4208D375
:10320000890192118B4204D389013AD0921100E0D6
:103210008909C3098B4201D3CB01C01A52418309EA
:103220008B4201D38B01C01A524143098B4201D317
:103230004B01C01A524103098B4201D30B01C01A42
:103240005241C3088B4201D3CB00C01A52418308BC
:103250008B4201D38B00C01A5241D9D243088B4212
:1032600001D34B00C01A5241411A00D201466346B5
:1032700052415B10104601D34042002B00D5494219
:10328000704763465B1000D3404201B50020C04642
:10329000C04602BD704770477047754600F022F87F
:1032A000AE46050069465346C008C000854618B0C2
:1032B00020B5FCF75BFF60BC00274908B646002636
:1032C000C0C5C0C5C0C5C0C5C0C5C0C5C0C5C0C5D6
:1032D000403D49008D4670470446C046C0462046E2
:1032E000FCF733FF00487047D00000200149182048
:1032F000ABBEFEE726000200704730B47446641E81
:103300002578641CAB4204D3635D5B00E31830BCDA
:1033100018471D46F8E70000383300080000002079
:103320004C000000F8000008843300084C00002026
:10333000E406000014010008006CDC02000000003C
:103340000000000001020304060708090000000055
:10335000000000000102030401020304060708093B
:1033600000A00000000000000000000000000000BD
:10337000000000000000000000000000000000004D
:043380000000000049
:04000005080000B53A
:00000001FF
