:030000000205E412
:0C05E400787FE4F6D8FD75812802062B14
:10076500010E00010C000D1000000000000000004B
:100775000000000000011D00010D00010F0001082F
:0A07850000010900010A00010B0049
:10055100E51B702AE51D7011AF0D050DFD1207C9D0
:10056100E50DC394C8407B8065E51D64017073AFE0
:100571000D150DFD1207C9E50D7067F51D22E51B6F
:1005810064027022050DE50DD394644055E4F50D28
:10059100E51D14600C04704A7D017FC81207C980F3
:1005A1002D7D01E48035E51B64017036050DE50DF7
:1005B100D39464402DE4F50DE51D146015047022FB
:1005C1007D017FC81207C9E4FD7FC81207C9751DE7
:1005D10001227D01E4FF1207C9E4FDFF1207C9E40E
:0305E100F51D22E3
:10032E00E4FFFE7D011206FC8F138E128D118C10D0
:10033E00C3EF951CFFEE9400FEC3648094805007BB
:10034E00E4F513F5128008EE3395E08F138E12F557
:10035E0011F510E47F0FFEFDFCAB13AA12A911A834
:10036E0010D312021D50147D027FC81207C97D01E1
:10037E007FC81207C9E4F51BF51422E47F0FFEFDBA
:10038E00FCAB13AA12A911A810D312021D4023E42C
:10039E007F1EFEFDFCA810D312021D50150514E59C
:1003AE00149464403EE4F514751B017D017FC80270
:1003BE0007C9E47F1EFEFDFCAB13AA12A911A810FB
:1003CE00D312021D401D0514E514D394644014E4A9
:1003DE00FD7FC81207C97D027FC81207C9E4F51454
:0303EE00751B027A
:0103F10022E9
:1003F2000508E508D3946450030204B3E50F7016B0
:10040200750F01FD7FC81207C97D017FC81207C998
:100412007D02E4FF8035E50FB40117750F02E4FD9C
:100422007FC81207C97D01E4FF1207C97D027FC898
:100432008019E50FB4021B750F03E4FDFF1207C913
:100442007D017FC81207C97D027FC81207C9E4F582
:100452000822E50F64037059F50FF51DF50DF50837
:100462007B0AFDFC7F091207E4E51CD3941E5007AA
:10047200E51CC394055017751905E4FD7FC81207E2
:10048200C97D017FC81207C97D02E4FF8014751976
:1004920001E4FDFF1207C97D017FC81207C97D0271
:1004A2007FC81207C9E4F518F517F516F515531AA2
:0104B200FE4B
:0104B3002226
:1004B4000509E509D394645003020550E50F700E55
:1004C400750F01FDFF1207C97D017FC88013E50F79
:1004D400B40117750F02E4FD7FC81207C97D01E45A
:1004E400FF1207C97D027FC8801AE50FB4021C758C
:1004F4000F03E4FD7FC81207C97D017FC81207C935
:100504007D02E4FF1207C9E4F50922E50F640370D4
:100514003BF50FF51DF50DF5097D01FF1206FC8F66
:100524001C7B0AE4FDFC1207E4751902E4FDFF12CA
:1005340007C97D017FC81207C97D027FC81207C998
:0C054400E4F518F517F516F515531AFE2E
:010550002288
:10024E00E4F52475190153A1FD43A20243910475EF
:10025E009004120816E4FDFF1207C97D017FC81233
:10026E0007C97D027FC81207C912082CE4FF1207C6
:10027E00FF8F1C751901E5A020E126E4F524052465
:10028E00E524B4C8F9E5A020E117751904E4FD7F53
:10029E00C81207C97D017FC81207C97D027FC880B9
:1002AE0075E50C60FCE4F50C120670781512022E42
:1002BE00E47BD07A07F9F8D312021D5023E4F51827
:1002CE00F517F516F515431A01050AE50AC3940349
:1002DE00400EE4F50A050BE50B943C4003E4F50BE8
:1002EE00E51924FE601A14601F1460211460232483
:1002FE00047028E51A30E0A9531AFE75190280A180
:10030E0012055112032E80991204B480941203F236
:10031E00808F7D02E4FF1207C980867519018081E6
:0B078F00021E000002200000012200FA
:1008160075A1C075D23075D10675D3C775D6C875A2
:06082600D7C843D2802276
:1007C900ED14600A14600A2402700F8FD6228FD7A5
:0B07D90022EF7003F5902275900422BF
:1006FC00E5AD54E04FFEEDC43354E04EF5AD43ADE3
:10070C008074017E00A807088005C333CE33CED891
:10071C00F9FFEE54018FABF5AC43AD40E5AD30E4E1
:10072C00FBAFAFEF75F010A4FFE5AEC4540F7C0027
:10073C002FFFEC35F0FEE48F288E27F526F5257F6C
:10074C0032FEFDAB28AA27A926A825120100E47BBE
:08075C00FF7A0FF9F812018B7E
:010764002272
:10082C00758E07758931758C44758A80C28CD2A9F6
:05083C00D28CD2AF22B6
:03000B0002079B4E
:10079B00C0E0C0D075D000C00743CF10758C447536
:1007AB008A80050EAF0EEFC394054009E50C70056A
:0E07BB00F50E750C01B280D007D0D0D0E03220
:10067000E5A020E109051FE51F7002051E22D3E554
:100680001F9404E51E9400400CE51F9432E51E946F
:100690000050020522E52260080521E521700205CF
:1006A00020E52264037031D3E5219432E5209400E3
:1006B0004026E4F50FF520F521F522FD7FC812074D
:1006C000C90D1207C90D1207C9531AFEE4F518F532
:1006D00017F516F515751903E52264016018E52272
:1006E00064036012D3E5219432E52094004007E4CE
:0B06F000F522F520F521E4F51EF51FB2
:0106FB0022DC
:1007E4008FF58CF38DF2C2AF75F40275F1F08BF6D0
:0B07F4000000000000E4F5F4D2AF228A
:1007FF00C2AF75F402E42FF582E43400F583E4937D
:06080F00FFE4F5F4D2AF96
:0108150022C0
:1005F00002024EE493A3F8E493A34003F68001F2D1
:1006000008DFF48029E493A3F85407240CC8C3330B
:10061000C4540F4420C8834004F456800146F6DFDA
:10062000E4800B0102040810204080900765E47EFE
:10063000019360BCA3FF543F30E509541FFEE493CF
:10064000A360010ECF54C025E060A840B8E493A396
:10065000FAE493A3F8E493A3C8C582C8CAC583CAC1
:10066000F0A3C8C582C8CAC583CADFE9DEE780BE79
:01079A00005E
:10010000E88FF0A4CC8BF0A42CFCE98EF0A42CFC9E
:100110008AF0EDA42CFCEA8EF0A4CDA8F08BF0A41C
:100120002DCC3825F0FDE98FF0A42CCD35F0FCEB7B
:100130008EF0A4FEA9F0EB8FF0A4CFC5F02ECD3940
:0F014000FEE43CFCEAA42DCE35F0FDE43CFC22AD
:10014F0075F008758200EF2FFFEE33FECD33CDCC67
:10015F0033CCC58233C5829BED9AEC99E5829840EA
:10016F000CF582EE9BFEED9AFDEC99FC0FD5F0D6C7
:10017F00E4CEFBE4CDFAE4CCF9A88222B800C1B9F1
:10018F000059BA002DEC8BF084CFCECDFCE5F0CB2F
:10019F00F97818EF2FFFEE33FEED33FDEC33FCEB68
:1001AF0033FB10D703994004EB99FB0FD8E5E4F923
:1001BF00FA227818EF2FFFEE33FEED33FDEC33FC10
:1001CF00C933C910D7059BE99A4007EC9BFCE99A04
:1001DF00F90FD8E0E4C9FAE4CCFB2275F010EF2F49
:1001EF00FFEE33FEED33FDCC33CCC833C810D70749
:1001FF009BEC9AE899400AED9BFDEC9AFCE899F884
:0E020F000FD5F0DAE4CDFBE4CCFAE4C8F92216
:10021D00EB9FF5F0EA9E42F0E99D42F0E89C45F037
:01022D0022AE
:10022E007401FF3395E0FEFDFC080808E62FFFF68B
:10023E0018E63EFEF618E63DFDF618E63CFCF62204
:00000001FF
