:03000000020131C9
:0C013100787FE4F6D8FD75811902017892
:08031100FFFFFFFFFFFFFFFFEC
:0403190002180000C6
:1002C30043A101000053A0BFE4FE53A0FDEF30E0C3
:1002D3000643A00100800453A0FE0043A002EFC325
:0602E30013FF0EBE08E44B
:0102E90022F2
:1002EA00E4FF53A1FE43A2010000000053A0BFFE99
:1002FA0053A0FDEFC313FFE5A030E003430780439B
:06030A00A0020EBE08EA8D
:0103100022CA
:10027300AC0743A10143A00243A00143A0407F4434
:100283001202C343A0400000AF041202C3AF051221
:0802930002C343A04000002259
:0C01BD007A00790875160875178F7FC04E
:0201C900AD0780
:1001CB00E4FC43A1017F401202C343A040AF0512E0
:1001DB0002C3ECC39516501D1200F9540FFF120207
:1001EB00C31200F9C4540FFF1202C3740129F9E4BE
:1001FB003AFA0C80DD43A0400000AF171202C34354
:04020B00A04000000F
:01020F0022CC
:1002430043A10143A00243A00143A0407F40120207
:10025300C343A0407FC01202C3E4FDE4FF1202C304
:0F0263000DBD10F743A0407F801202C343A0409F
:010272002269
:10029B00E4FD43A04043A0017F421202C353A1FEE1
:1002AB0043A2011202EAAD071202EAEFFFEDCF8F74
:0702BB00F012011243A04004
:0102C2002219
:1002100078087C007D007BFF7A0379117E007F08DF
:100220001200D3E4F510F51153A1FE43A20143A13E
:100230000243A14075A043FB1201BD7B001201BD2A
:030240000080F843
:10013D00020210E493A3F8E493A34003F68001F2C6
:10014D0008DFF48029E493A3F85407240CC8C333C3
:10015D00C4540F4420C8834004F456800146F6DF92
:10016D00E4800B0102040810204080900319E47E06
:10017D00019360BCA3FF543F30E509541FFEE49387
:10018D00A360010ECF54C025E060A840B8E493A34E
:10019D00FAE493A3F8E493A3C8C582C8CAC583CA79
:1001AD00F0A3C8C582C8CAC583CADFE9DEE780BE31
:01031D0000DF
:10000300E709F608DFFA8046E709F208DFFA803EDF
:1000130088828C83E709F0A3DFFA8032E309F608CC
:10002300DFFA8078E309F208DFFA807088828C8334
:10003300E309F0A3DFFA806489828A83E0A3F608E8
:10004300DFFA805889828A83E0A3F208DFFA804CC2
:1000530080D280FA80C680D4806980F28033801099
:1000630080A680EA809A80A880DA80E280CA803302
:1000730089828A83ECFAE493A3C8C582C8CCC5837A
:10008300CCF0A3C8C582C8CCC583CCDFE9DEE7804A
:100093000D89828A83E493A3F608DFF9ECFAA9F0C9
:1000A300EDFB2289828A83ECFAE0A3C8C582C8CC1F
:1000B300C583CCF0A3C8C582C8CCC583CCDFEADE38
:1000C300E880DB89828A83E493A3F208DFF980CC9A
:1000D30088F0EF60010E4E60C388F0ED2402B40493
:1000E3000050B9F582EB2402B4040050AF2323453A
:0600F3008223900053730C
:1000F900BB010689828A83E0225002E722BBFE0205
:09010900E32289828A83E4932237
:10011200BB010A89828A83F0E5F0A3F0225006F738
:0F01220009A7F01922BBFE06F3E5F009F3192235
:00000001FF
