:0300000002060FE6
:0C060F00787FE4F6D8FD75812C020656B9
:10078D00010E00010C00111000000000000000001F
:10079D00000000000000000000012100010D00011B
:0E07AD000F00010800010900010A00010B0005
:1004D300E51F702FE5217015AF0D050D7D01120885
:1004E30010E50DC394C85003020570806CE52164C8
:1004F30001707AAF0D150D7D01120810E50D706DB9
:10050300F52122E51F640270287D017FC8120810BF
:10051300050DE50DD394644054E4F50DE521146015
:100523000C047049E4FD7FC8120810802CE4FD80A0
:1005330035E51F64017036050DE50DD39464402D38
:10054300E4F50DE521146015047022E4FD7FC81263
:1005530008107D017FC812081075210122E4FDFFF8
:0E0563001208107D01E4FF120810E4F52122B9
:10032F00E4FFFE7D011207248F138E128D118C10A6
:10033F00C3EF9520FFEE9400FEC3648094805007B6
:10034F00E4F513F5128008EE3395E08F138E12F556
:10035F0011F5100517E517D394645052E47F0FFE83
:10036F00FDFCAB13AA12A911A81012021D50030510
:10037F001422E47F0FFEFDFCAB13AA12A911A810E3
:10038F00D312021D4011E47F1EFEFDFCA810D312F4
:10039F00021D5003051522E47F1EFEFDFCAB13AAC0
:1003AF0012A911A810D312021D4054051622E4F50C
:1003BF0017E514C3944B40137D027FC8120810E455
:1003CF00FD7FC8120810E4F51F802DE515C3944B6F
:1003DF004005751F018021E516C3944B40137D0125
:1003EF007FC81208107D027FC8120810751F028087
:0F03FF0007E4F514F515F516E4F514F515F516E4
:01040E0022CB
:10040F000508E508D3946450030204D2E50F701772
:10041F00750F017D017FC8120810E4FD7FC8120817
:10042F00107D02E4FF8035E50FB40116750F027DD4
:10043F00017FC8120810E4FDFF1208107D027FC86B
:10044F00801AE50FB4021C750F037D01E4FF12083B
:10045F0010E4FD7FC81208107D027FC8120810E457
:10046F00F50822E50F6403705AF50FF521F50DF528
:10047F00087B0AFDFC7F091207F5E520D3941E5077
:10048F0007E520C394055017751D057D017FC81220
:10049F000810E4FD7FC81208107D02E4FF80157577
:1004AF001D017D01E4FF120810E4FD7FC812081042
:1004BF007D027FC8120810E4F51BF51AF519F5181F
:0304CF00531EFEBB
:0104D2002207
:100571000509E509D39464500302060EE50F700FD7
:10058100750F017D01FF120810E4FD7FC88012E59F
:100591000FB40116750F027D017FC8120810E4FD2A
:1005A100FF1208107D027FC8801AE50FB4021C7586
:1005B1000F037D017FC8120810E4FD7FC8120810E7
:1005C1007D02E4FF120810E4F50922E50F640370CF
:1005D1003CF50FF521F50DF5097D01FF1207248F7B
:1005E100207B0AE4FDFC1207F5751D027D01E4FF85
:1005F100120810E4FD7FC81208107D027FC812089E
:0D06010010E4F51BF51AF519F518531EFE4F
:01060E0022C9
:10024E00E4F528751D0153A1FD43A20243910475E7
:10025E0090041208417D01E4FF120810E4FD7FC8EE
:10026E001208107D027FC8120810120856E4FF1201
:10027E00082A8F20751D01E5A020E126E4F528054A
:10028E0028E528B4C8F9E5A020E117751D047D0105
:10029E007FC8120810E4FD7FC81208107D027FC8C7
:1002AE008075E50C60FCE4F50C12069B78181202C2
:1002BE002EE47B287A23F9F8D312021D5023E4F59D
:1002CE001BF51AF519F518431E01050AE50AC39424
:1002DE0028400EE4F50A050BE50B94184003E4F5EF
:1002EE000BE51D24FE601A14601F14602114602398
:1002FE0024047028E51E30E0A9531EFE751D0280F1
:10030E00A112032F1204D380991205718094120446
:10031E000F808F7D02E4FF1208108086751D01800C
:01032E00814D
:0B07BB000222000002240000012600C2
:10084100E4F5D275D106F5D475D3C775DEC875DF69
:05085100C843D2802223
:10081000ED600D24FE600604700F8FDE228FDF2254
:0A082000EF7003F59022759004229A
:10072400E5AD54E04FFEEDC43354E04EF5AD43ADBA
:100734008074017E00A807088005C333CE33CED869
:10074400F9FFEE54018FABF5AC43AD40E5AD30E4B9
:10075400FBAFAFEF75F010A4FFE5AEC4540F7C00FF
:100764002FFFEC35F0FEE48F2C8E2BF52AF5297F34
:1007740032FEFDAB2CAA2BA92AA829120100E47B86
:08078400FF7A0FF9F812018B56
:01078C00224A
:10085600758E07758931758C44758A80C28CD2A9CC
:05086600D28CD2AF228C
:03000B000207C722
:1007C700C0E0C0D075D000C00743CF10758C44750A
:1007D7008A80050EAF0EEFC394054009E50C70053E
:0E07E700F50E750C01B280D007D0D0D0E032F4
:10069B00E5A020E1090523E5237002052222D3E51D
:1006AB00239404E5229400400CE5239432E5229434
:1006BB000050020526E52660080525E52570020594
:1006CB0024E5266403702ED3E5259432E5249400AB
:1006DB004023E4F524F525F5267D017FC81208108B
:1006EB001D1208107D02120810E4F51BF51AF519FE
:1006FB00F518751D03E52664016018E52664036093
:10070B0012D3E5259432E52494004007E4F526F551
:08071B0024F525E4F522F52385
:0107230022B3
:1007F5008FF58CF38DF2C2AF75F40275F1F08BF6BF
:0B0805000000000000E4F5F4D2AF2278
:10082A00C2AF75F402E42FF582E43400F583E49351
:06083A00FFE4F5F4D2AF6B
:010840002295
:10061B0002024EE493A3F8E493A34003F68001F2A5
:10062B0008DFF48029E493A3F85407240CC8C333E0
:10063B00C4540F4420C8834004F456800146F6DFAF
:10064B00E4800B010204081020408090078DE47EAB
:10065B00019360BCA3FF543F30E509541FFEE493A4
:10066B00A360010ECF54C025E060A840B8E493A36B
:10067B00FAE493A3F8E493A3C8C582C8CAC583CA96
:10068B00F0A3C8C582C8CAC583CADFE9DEE780BE4E
:0107C6000032
:10010000E88FF0A4CC8BF0A42CFCE98EF0A42CFC9E
:100110008AF0EDA42CFCEA8EF0A4CDA8F08BF0A41C
:100120002DCC3825F0FDE98FF0A42CCD35F0FCEB7B
:100130008EF0A4FEA9F0EB8FF0A4CFC5F02ECD3940
:0F014000FEE43CFCEAA42DCE35F0FDE43CFC22AD
:10014F0075F008758200EF2FFFEE33FECD33CDCC67
:10015F0033CCC58233C5829BED9AEC99E5829840EA
:10016F000CF582EE9BFEED9AFDEC99FC0FD5F0D6C7
:10017F00E4CEFBE4CDFAE4CCF9A88222B800C1B9F1
:10018F000059BA002DEC8BF084CFCECDFCE5F0CB2F
:10019F00F97818EF2FFFEE33FEED33FDEC33FCEB68
:1001AF0033FB10D703994004EB99FB0FD8E5E4F923
:1001BF00FA227818EF2FFFEE33FEED33FDEC33FC10
:1001CF00C933C910D7059BE99A4007EC9BFCE99A04
:1001DF00F90FD8E0E4C9FAE4CCFB2275F010EF2F49
:1001EF00FFEE33FEED33FDCC33CCC833C810D70749
:1001FF009BEC9AE899400AED9BFDEC9AFCE899F884
:0E020F000FD5F0DAE4CDFBE4CCFAE4C8F92216
:10021D00EB9FF5F0EA9E42F0E99D42F0E89C45F037
:01022D0022AE
:10022E007401FF3395E0FEFDFC080808E62FFFF68B
:10023E0018E63EFEF618E63DFDF618E63CFCF62204
:00000001FF
