:030000000201B347
:0C01B300787FE4F6D8FD7581240201FA83
:10032C00010C00010B00100D00000000000000008B
:10033C000000000000000000010800010900010A93
:01034C0000B0
:1001000053A1FD43A20212038B1203A17F04120329
:10011000748F15E515B4011CE4FF1203748F197F69
:10012000011203748F1A7F021203748F1B7F031254
:1001300003748F1CE50B60FCE4F50B12023F051401
:10014000E51470020513C394D0E5139407405BE4F3
:10015000F513F5144317010509E5099403404BE431
:10016000F5094317020508E5089478402EE5157057
:100170002A7B0AFDFCAF191203597B0A7D017C0022
:10018000AF1A1203597B0A7D027C00AF1B12035980
:100190007B0A7D037C00AF1C120359050AE50AC3E4
:1001A000943C4006E4F50A4317047D01E4FF120283
:0301B000B4808197
:0B034D00021D0000021F000001210043
:10038B0075A1C075D23075D10675D36375D66475FA
:06039B00D76443D280226A
:1002B400E5AD54E04FFEEDC43354E04EF5AD43AD2F
:1002C4008074017E00A807088005C333CE33CED8DE
:1002D400F9FFEE54018FABF5AC43AD40E5AD30E42E
:1002E400FBAFAFEF75F010A4FFAEF0E5AEC4540F52
:0902F4007C002FF523EC3EF522FD
:0102FD0022DE
:1003A100758E07758931758C44758A80C28CD2A986
:0503B100D28CD2AF2246
:03000B000202FEF0
:1002FE00C0E0C0D075D000C00743CF10758C4475D8
:10030E008A80050CAF0CEFC394054009E50B700510
:0E031E00F50C750B01B280D007D0D0D0E032C4
:10023F00E5A020E010051EE51E7002051DD3949663
:10024F00E51D940022D3E51E9404E51D9400400C97
:10025F00E51E9432E51D940050020521E52160084A
:10026F000520E5207002051FE521B40314D3E52016
:10027F009432E51F94004009E4F51FF520F521F5B0
:10028F0016E52164016018E52164036012D3E520AF
:10029F009432E51F94004007E4F521F51FF520E4A3
:0402AF00F51DF51E26
:0102B3002228
:100359008FF58CF38DF2C2AF75F40275F1F08BF65F
:0B0369000000000000E4F5F4D2AF2219
:10037400C2AF75F402E42FF582E43400F583E4930C
:06038400FFE4F5F4D2AF26
:01038A002250
:1001BF00020100E493A3F8E493A34003F68001F255
:1001CF0008DFF48029E493A3F85407240CC8C33341
:1001DF00C4540F4420C8834004F456800146F6DF10
:1001EF00E4800B010204081020408090032CE47E71
:1001FF00019360BCA3FF543F30E509541FFEE49305
:10020F00A360010ECF54C025E060A840B8E493A3CB
:10021F00FAE493A3F8E493A3C8C582C8CAC583CAF6
:10022F00F0A3C8C582C8CAC583CADFE9DEE780BEAE
:0103580000A4
:00000001FF
